{
  "transactions": [
    {
      "hash": "0x7ff8b5dded3c1cc56916db526769e4ea2bd05f784f60d6ecedbcb1df9282d475",
      "transactionType": "CALL",
      "contractName": null,
      "contractAddress": "0xd85aba620dfa09d58f6461ce4b1f787917c980da",
      "function": "diamondCut((address,uint8,bytes4[])[],address,bytes)",
      "arguments": [
        "[(0xfbD68Fa9a2584760B065497Bea422e337F672304, 0, [0xecfe5a5e, 0x819ad6a5, 0x263e9970, 0x8b9f125f, 0xb3ff9da4])]",
        "0x0000000000000000000000000000000000000000",
        "0x"
      ],
      "transaction": {
        "from": "0x580b01f8cdf7606723c3be0dd2aad058f5aeca3d",
        "to": "0xd85aba620dfa09d58f6461ce4b1f787917c980da",
        "gas": "0x39526",
        "value": "0x0",
        "input": "0x1f931c1c0000000000000000000000000000000000000000000000000000000000000060000000000000000000000000000000000000000000000000000000000000000000000000000000000000000000000000000000000000000000000000000001c000000000000000000000000000000000000000000000000000000000000000010000000000000000000000000000000000000000000000000000000000000020000000000000000000000000fbd68fa9a2584760b065497bea422e337f672304000000000000000000000000000000000000000000000000000000000000000000000000000000000000000000000000000000000000000000000000000000600000000000000000000000000000000000000000000000000000000000000005ecfe5a5e00000000000000000000000000000000000000000000000000000000819ad6a500000000000000000000000000000000000000000000000000000000263e9970000000000000000000000000000000000000000000000000000000008b9f125f00000000000000000000000000000000000000000000000000000000b3ff9da4000000000000000000000000000000000000000000000000000000000000000000000000000000000000000000000000000000000000000000000000",
        "nonce": "0x264",
        "chainId": "0x106a"
      },
      "additionalContracts": [],
      "isFixedGasLimit": false
    },
    {
      "hash": "0xedc55406a86b6e632ff1b2402b395e0b5e0b63dca73092920930d8f450778764",
      "transactionType": "CALL",
      "contractName": null,
      "contractAddress": "0xd85aba620dfa09d58f6461ce4b1f787917c980da",
      "function": "setTierImages(string[])",
      "arguments": [
        "[QmTest1, QmTest2]"
      ],
      "transaction": {
        "from": "0x580b01f8cdf7606723c3be0dd2aad058f5aeca3d",
        "to": "0xd85aba620dfa09d58f6461ce4b1f787917c980da",
        "gas": "0x23bb5",
        "value": "0x0",
        "input": "0xecfe5a5e00000000000000000000000000000000000000000000000000000000000000200000000000000000000000000000000000000000000000000000000000000002000000000000000000000000000000000000000000000000000000000000004000000000000000000000000000000000000000000000000000000000000000800000000000000000000000000000000000000000000000000000000000000007516d5465737431000000000000000000000000000000000000000000000000000000000000000000000000000000000000000000000000000000000000000007516d546573743200000000000000000000000000000000000000000000000000",
        "nonce": "0x265",
        "chainId": "0x106a"
      },
      "additionalContracts": [],
      "isFixedGasLimit": false
    }
  ],
  "receipts": [
    {
      "status": "0x1",
      "cumulativeGasUsed": "0x34c64",
      "logs": [
        {
          "address": "0xd85aba620dfa09d58f6461ce4b1f787917c980da",
          "topics": [
            "0x8faa70878671ccd212d20771b795c50af8fd3ff6cf27f4bde57e5d4de0aeb673"
          ],
          "data": "0x0000000000000000000000000000000000000000000000000000000000000060000000000000000000000000000000000000000000000000000000000000000000000000000000000000000000000000000000000000000000000000000001c000000000000000000000000000000000000000000000000000000000000000010000000000000000000000000000000000000000000000000000000000000020000000000000000000000000fbd68fa9a2584760b065497bea422e337f672304000000000000000000000000000000000000000000000000000000000000000000000000000000000000000000000000000000000000000000000000000000600000000000000000000000000000000000000000000000000000000000000005ecfe5a5e00000000000000000000000000000000000000000000000000000000819ad6a500000000000000000000000000000000000000000000000000000000263e9970000000000000000000000000000000000000000000000000000000008b9f125f00000000000000000000000000000000000000000000000000000000b3ff9da4000000000000000000000000000000000000000000000000000000000000000000000000000000000000000000000000000000000000000000000000",
          "blockHash": "0x3a3f74f364c3f54d9f4452bc65ef4b27df8cfb5f237727a41c990c2c636413a1",
          "blockNumber": "0x17e775f",
          "transactionHash": "0x7ff8b5dded3c1cc56916db526769e4ea2bd05f784f60d6ecedbcb1df9282d475",
          "transactionIndex": "0x1",
          "logIndex": "0x0",
          "removed": false
        }
      ],
      "logsBloom": "0x00000000000000000000000000000000000000000000000000000000000000000000000000000000000000000000000000000000000000000000000000000000000000000000000000000000000000000000000001000000200800000000000000000000000000000000000000000000000000000000000000000000000000000020000000000000000000000000000000000000000000000000000000000000000000000000000000000000008000000000000000200000000000000000000000000000000000000000000000000000000000000000000000000000000000000000000000000000000000000000000000000000000000000000000000000000",
      "type": "0x2",
      "transactionHash": "0x7ff8b5dded3c1cc56916db526769e4ea2bd05f784f60d6ecedbcb1df9282d475",
      "transactionIndex": "0x1",
      "blockHash": "0x3a3f74f364c3f54d9f4452bc65ef4b27df8cfb5f237727a41c990c2c636413a1",
      "blockNumber": "0x17e775f",
      "gasUsed": "0x29800",
      "effectiveGasPrice": "0xff",
      "from": "0x580b01f8cdf7606723c3be0dd2aad058f5aeca3d",
      "to": "0xd85aba620dfa09d58f6461ce4b1f787917c980da",
      "contractAddress": null,
      "l1BaseFeeScalar": "0x2af8",
      "l1BlobBaseFee": "0x13f2a18",
      "l1BlobBaseFeeScalar": "0x109618",
      "l1Fee": "0x1ad460372",
      "l1GasPrice": "0x957a225",
      "l1GasUsed": "0x8f1"
    },
    {
      "status": "0x1",
      "cumulativeGasUsed": "0x4d34e",
      "logs": [
        {
          "address": "0xd85aba620dfa09d58f6461ce4b1f787917c980da",
          "topics": [
            "0x9cf7549fd1d98ae74ce436f07fe668fe04bcfbda54a2397be29019b8a1db4239"
          ],
          "data": "0x0000000000000000000000000000000000000000000000000000000000000002",
          "blockHash": "0x3a3f74f364c3f54d9f4452bc65ef4b27df8cfb5f237727a41c990c2c636413a1",
          "blockNumber": "0x17e775f",
          "transactionHash": "0xedc55406a86b6e632ff1b2402b395e0b5e0b63dca73092920930d8f450778764",
          "transactionIndex": "0x2",
          "logIndex": "0x1",
          "removed": false
        }
      ],
      "logsBloom": "0x00000000000000000000000000000000000000000000000000000000000000000000000000000000000000000000000000000000000000002000000000000000000000000000010000000000000000000000000000000000200000000000000000000000000000000000000000000000000000000000000000000000000000000000000000000000000000000000000000000000000000000000000000000000000000000000000000000000008000000000000000200000000000000000000000000000000000000000000000000000000000000000000000000000000000000000000000000000000040000000000000000000000000000000000000000000",
      "type": "0x2",
      "transactionHash": "0xedc55406a86b6e632ff1b2402b395e0b5e0b63dca73092920930d8f450778764",
      "transactionIndex": "0x2",
      "blockHash": "0x3a3f74f364c3f54d9f4452bc65ef4b27df8cfb5f237727a41c990c2c636413a1",
      "blockNumber": "0x17e775f",
      "gasUsed": "0x186ea",
      "effectiveGasPrice": "0xff",
      "from": "0x580b01f8cdf7606723c3be0dd2aad058f5aeca3d",
      "to": "0xd85aba620dfa09d58f6461ce4b1f787917c980da",
      "contractAddress": null,
      "l1BaseFeeScalar": "0x2af8",
      "l1BlobBaseFee": "0x13f2a18",
      "l1BlobBaseFeeScalar": "0x109618",
      "l1Fee": "0x132549dc6",
      "l1GasPrice": "0x957a225",
      "l1GasUsed": "0x662"
    }
  ],
  "libraries": [],
  "pending": [],
  "returns": {},
  "timestamp": 1755443615,
  "chain": 4202,
  "commit": "12122dc"
}